{
  "contractName": "SimpleContract",
  "abi": [
    {
      "constant": true,
      "inputs": [],
      "name": "numberOfUserAccounts",
      "outputs": [
        {
          "name": "",
          "type": "uint256"
        }
      ],
      "payable": false,
      "stateMutability": "view",
      "type": "function"
    },
    {
      "constant": true,
      "inputs": [
        {
          "name": "",
          "type": "uint256"
        }
      ],
      "name": "Endorsers",
      "outputs": [
        {
          "name": "",
          "type": "address"
        }
      ],
      "payable": false,
      "stateMutability": "view",
      "type": "function"
    },
    {
      "constant": true,
      "inputs": [],
      "name": "numberOfEndorserAccounts",
      "outputs": [
        {
          "name": "",
          "type": "uint256"
        }
      ],
      "payable": false,
      "stateMutability": "view",
      "type": "function"
    },
    {
      "constant": true,
      "inputs": [
        {
          "name": "",
          "type": "uint256"
        }
      ],
      "name": "AppliedEndorsementList",
      "outputs": [
        {
          "name": "",
          "type": "address"
        }
      ],
      "payable": false,
      "stateMutability": "view",
      "type": "function"
    },
    {
      "inputs": [],
      "payable": false,
      "stateMutability": "nonpayable",
      "type": "constructor"
    },
    {
      "anonymous": false,
      "inputs": [
        {
          "indexed": false,
          "name": "AllotedAddress",
          "type": "address"
        }
      ],
      "name": "AllotedAddress",
      "type": "event"
    },
    {
      "anonymous": false,
      "inputs": [
        {
          "indexed": false,
          "name": "AllotedAddressEndorser",
          "type": "address"
        }
      ],
      "name": "AllotedAddressEndorser",
      "type": "event"
    },
    {
      "constant": false,
      "inputs": [
        {
          "name": "name",
          "type": "string"
        },
        {
          "name": "password",
          "type": "string"
        },
        {
          "name": "city",
          "type": "string"
        },
        {
          "name": "country",
          "type": "string"
        },
        {
          "name": "email",
          "type": "string"
        },
        {
          "name": "DOB",
          "type": "string"
        }
      ],
      "name": "createUserAccount",
      "outputs": [
        {
          "name": "",
          "type": "address"
        }
      ],
      "payable": false,
      "stateMutability": "nonpayable",
      "type": "function"
    },
    {
      "constant": false,
      "inputs": [
        {
          "name": "addr",
          "type": "address"
        },
        {
          "name": "pw",
          "type": "string"
        }
      ],
      "name": "getDetails",
      "outputs": [
        {
          "name": "",
          "type": "bool"
        },
        {
          "name": "",
          "type": "string"
        },
        {
          "name": "",
          "type": "string"
        },
        {
          "name": "",
          "type": "string"
        },
        {
          "name": "",
          "type": "string"
        },
        {
          "name": "",
          "type": "string"
        }
      ],
      "payable": false,
      "stateMutability": "nonpayable",
      "type": "function"
    },
    {
      "constant": false,
      "inputs": [
        {
          "name": "name",
          "type": "string"
        },
        {
          "name": "pw",
          "type": "string"
        }
      ],
      "name": "createEndorser",
      "outputs": [
        {
          "name": "",
          "type": "address"
        }
      ],
      "payable": false,
      "stateMutability": "nonpayable",
      "type": "function"
    },
    {
      "constant": false,
      "inputs": [
        {
          "name": "addr",
          "type": "address"
        },
        {
          "name": "pw",
          "type": "string"
        }
      ],
      "name": "applyForEndorsemntMain",
      "outputs": [],
      "payable": false,
      "stateMutability": "nonpayable",
      "type": "function"
    },
    {
      "constant": false,
      "inputs": [
        {
          "name": "addr",
          "type": "address"
        },
        {
          "name": "pw",
          "type": "string"
        }
      ],
      "name": "Endorse",
      "outputs": [],
      "payable": false,
      "stateMutability": "nonpayable",
      "type": "function"
    },
    {
      "constant": false,
      "inputs": [],
      "name": "createDefualtEndorsers",
      "outputs": [],
      "payable": false,
      "stateMutability": "nonpayable",
      "type": "function"
    },
    {
      "constant": false,
      "inputs": [
        {
          "name": "n",
          "type": "uint256"
        }
      ],
      "name": "getEndorserFromList",
      "outputs": [
        {
          "name": "",
          "type": "address"
        }
      ],
      "payable": false,
      "stateMutability": "nonpayable",
      "type": "function"
    }
  ],
  "bytecode": "0x608060405234801561001057600080fd5b5060008081905550600060018190555061337c8061002f6000396000f300608060405260043610620000bb576000357c0100000000000000000000000000000000000000000000000000000000900463ffffffff1680630cbf541714620000c0578063340de09f14620000ee5780633c786caa1462000108578063654c86a814620001785780638523554714620001e8578063bb8219d514620003f2578063c7413c7d1462000420578063d90f118b1462000512578063db1251841462000582578063e5a19017146200060e578063f1dcaafd14620008dd575b600080fd5b348015620000cd57600080fd5b50620000d862000969565b6040518082815260200191505060405180910390f35b348015620000fb57600080fd5b50620001066200096f565b005b3480156200011557600080fd5b50620001366004803603810190808035906020019092919050505062000ad6565b604051808273ffffffffffffffffffffffffffffffffffffffff1673ffffffffffffffffffffffffffffffffffffffff16815260200191505060405180910390f35b3480156200018557600080fd5b50620001a66004803603810190808035906020019092919050505062000b2d565b604051808273ffffffffffffffffffffffffffffffffffffffff1673ffffffffffffffffffffffffffffffffffffffff16815260200191505060405180910390f35b348015620001f557600080fd5b50620003b0600480360381019080803590602001908201803590602001908080601f0160208091040260200160405190810160405280939291908181526020018383808284378201915050505050509192919290803590602001908201803590602001908080601f0160208091040260200160405190810160405280939291908181526020018383808284378201915050505050509192919290803590602001908201803590602001908080601f0160208091040260200160405190810160405280939291908181526020018383808284378201915050505050509192919290803590602001908201803590602001908080601f0160208091040260200160405190810160405280939291908181526020018383808284378201915050505050509192919290803590602001908201803590602001908080601f0160208091040260200160405190810160405280939291908181526020018383808284378201915050505050509192919290803590602001908201803590602001908080601f016020809104026020016040519081016040528093929190818152602001838380828437820191505050505050919291929050505062000b6c565b604051808273ffffffffffffffffffffffffffffffffffffffff1673ffffffffffffffffffffffffffffffffffffffff16815260200191505060405180910390f35b348015620003ff57600080fd5b506200040a620010d5565b6040518082815260200191505060405180910390f35b3480156200042d57600080fd5b50620004d0600480360381019080803590602001908201803590602001908080601f0160208091040260200160405190810160405280939291908181526020018383808284378201915050505050509192919290803590602001908201803590602001908080601f0160208091040260200160405190810160405280939291908181526020018383808284378201915050505050509192919290505050620010db565b604051808273ffffffffffffffffffffffffffffffffffffffff1673ffffffffffffffffffffffffffffffffffffffff16815260200191505060405180910390f35b3480156200051f57600080fd5b506200054060048036038101908080359060200190929190505050620012dd565b604051808273ffffffffffffffffffffffffffffffffffffffff1673ffffffffffffffffffffffffffffffffffffffff16815260200191505060405180910390f35b3480156200058f57600080fd5b506200060c600480360381019080803573ffffffffffffffffffffffffffffffffffffffff169060200190929190803590602001908201803590602001908080601f01602080910402602001604051908101604052809392919081815260200183838082843782019150505050505091929192905050506200131c565b005b3480156200061b57600080fd5b5062000698600480360381019080803573ffffffffffffffffffffffffffffffffffffffff169060200190929190803590602001908201803590602001908080601f0160208091040260200160405190810160405280939291908181526020018383808284378201915050505050509192919290505050620016dd565b6040518087151515158152602001806020018060200180602001806020018060200186810386528b818151815260200191508051906020019080838360005b83811015620006f4578082015181840152602081019050620006d7565b50505050905090810190601f168015620007225780820380516001836020036101000a031916815260200191505b5086810385528a818151815260200191508051906020019080838360005b838110156200075d57808201518184015260208101905062000740565b50505050905090810190601f1680156200078b5780820380516001836020036101000a031916815260200191505b50868103845289818151815260200191508051906020019080838360005b83811015620007c6578082015181840152602081019050620007a9565b50505050905090810190601f168015620007f45780820380516001836020036101000a031916815260200191505b50868103835288818151815260200191508051906020019080838360005b838110156200082f57808201518184015260208101905062000812565b50505050905090810190601f1680156200085d5780820380516001836020036101000a031916815260200191505b50868103825287818151815260200191508051906020019080838360005b83811015620008985780820151818401526020810190506200087b565b50505050905090810190601f168015620008c65780820380516001836020036101000a031916815260200191505b509b50505050505050505050505060405180910390f35b348015620008ea57600080fd5b5062000967600480360381019080803573ffffffffffffffffffffffffffffffffffffffff169060200190929190803590602001908201803590602001908080601f016020809104026020016040519081016040528093929190818152602001838380828437820191505050505050919291929050505062001ee6565b005b60005481565b620009e56040805190810160405280600581526020017f48616164790000000000000000000000000000000000000000000000000000008152506040805190810160405280600381526020017f3132330000000000000000000000000000000000000000000000000000000000815250620010db565b5062000a5c6040805190810160405280600681526020017f57616c65656400000000000000000000000000000000000000000000000000008152506040805190810160405280600381526020017f3132330000000000000000000000000000000000000000000000000000000000815250620010db565b5062000ad36040805190810160405280600581526020017f486173616e0000000000000000000000000000000000000000000000000000008152506040805190810160405280600381526020017f3132330000000000000000000000000000000000000000000000000000000000815250620010db565b50565b600060028054905082111562000aeb57600080fd5b60028281548110151562000afb57fe5b9060005260206000200160009054906101000a900473ffffffffffffffffffffffffffffffffffffffff169050919050565b60028181548110151562000b3d57fe5b906000526020600020016000915054906101000a900473ffffffffffffffffffffffffffffffffffffffff1681565b60008060006001898962000b7f6200229a565b80841515151581526020018060200180602001838103835285818151815260200191508051906020019080838360005b8381101562000bcc57808201518184015260208101905062000baf565b50505050905090810190601f16801562000bfa5780820380516001836020036101000a031916815260200191505b50838103825284818151815260200191508051906020019080838360005b8381101562000c3557808201518184015260208101905062000c18565b50505050905090810190601f16801562000c635780820380516001836020036101000a031916815260200191505b5095505050505050604051809103906000f08015801562000c88573d6000803e3d6000fd5b5091507f63b46f3231a83ee49e61d489b67cb93cbfec5c7d8f1ee7b99320a356887f6f9f82604051808273ffffffffffffffffffffffffffffffffffffffff1673ffffffffffffffffffffffffffffffffffffffff16815260200191505060405180910390a18190508073ffffffffffffffffffffffffffffffffffffffff1663f07513eb886040518263ffffffff167c01000000000000000000000000000000000000000000000000000000000281526004018080602001828103825283818151815260200191508051906020019080838360005b8381101562000d7b57808201518184015260208101905062000d5e565b50505050905090810190601f16801562000da95780820380516001836020036101000a031916815260200191505b5092505050600060405180830381600087803b15801562000dc957600080fd5b505af115801562000dde573d6000803e3d6000fd5b505050508073ffffffffffffffffffffffffffffffffffffffff1663d1ad6efe876040518263ffffffff167c01000000000000000000000000000000000000000000000000000000000281526004018080602001828103825283818151815260200191508051906020019080838360005b8381101562000e6c57808201518184015260208101905062000e4f565b50505050905090810190601f16801562000e9a5780820380516001836020036101000a031916815260200191505b5092505050600060405180830381600087803b15801562000eba57600080fd5b505af115801562000ecf573d6000803e3d6000fd5b505050508073ffffffffffffffffffffffffffffffffffffffff1663282b065a866040518263ffffffff167c01000000000000000000000000000000000000000000000000000000000281526004018080602001828103825283818151815260200191508051906020019080838360005b8381101562000f5d57808201518184015260208101905062000f40565b50505050905090810190601f16801562000f8b5780820380516001836020036101000a031916815260200191505b5092505050600060405180830381600087803b15801562000fab57600080fd5b505af115801562000fc0573d6000803e3d6000fd5b505050508073ffffffffffffffffffffffffffffffffffffffff1663dd9e54b3856040518263ffffffff167c01000000000000000000000000000000000000000000000000000000000281526004018080602001828103825283818151815260200191508051906020019080838360005b838110156200104e57808201518184015260208101905062001031565b50505050905090810190601f1680156200107c5780820380516001836020036101000a031916815260200191505b5092505050600060405180830381600087803b1580156200109c57600080fd5b505af1158015620010b1573d6000803e3d6000fd5b50505050600080815480929190600101919050555081925050509695505050505050565b60015481565b60008060008484620010ec6200229a565b80841515151581526020018060200180602001838103835285818151815260200191508051906020019080838360005b83811015620011395780820151818401526020810190506200111c565b50505050905090810190601f168015620011675780820380516001836020036101000a031916815260200191505b50838103825284818151815260200191508051906020019080838360005b83811015620011a257808201518184015260208101905062001185565b50505050905090810190601f168015620011d05780820380516001836020036101000a031916815260200191505b5095505050505050604051809103906000f080158015620011f5573d6000803e3d6000fd5b5090507ff094203935334a1ae251d032241e52de5ddd57341306b2991fe95f4ef0db964981604051808273ffffffffffffffffffffffffffffffffffffffff1673ffffffffffffffffffffffffffffffffffffffff16815260200191505060405180910390a160028190806001815401808255809150509060018203906000526020600020016000909192909190916101000a81548173ffffffffffffffffffffffffffffffffffffffff021916908373ffffffffffffffffffffffffffffffffffffffff160217905550506001600081548092919060010191905055508091505092915050565b600381815481101515620012ed57fe5b906000526020600020016000915054906101000a900473ffffffffffffffffffffffffffffffffffffffff1681565b600080600080859350846040518082805190602001908083835b6020831015156200135d578051825260208201915060208101905060208303925062001336565b6001836020036101000a03801982511681845116808217855250505050505090500191505060405180910390206040518082600019166000191681526020019150506040518091039020600019168473ffffffffffffffffffffffffffffffffffffffff1663459ac33a6040518163ffffffff167c0100000000000000000000000000000000000000000000000000000000028152600401600060405180830381600087803b1580156200141057600080fd5b505af115801562001425573d6000803e3d6000fd5b505050506040513d6000823e3d601f19601f8201168201806040525060208110156200145057600080fd5b8101908080516401000000008111156200146957600080fd5b828101905060208101848111156200148057600080fd5b81518560018202830111640100000000821117156200149e57600080fd5b50509291905050506040518082805190602001908083835b602083101515620014dd5780518252602082019150602081019050602083039250620014b6565b6001836020036101000a038019825116818451168082178552505050505050905001915050604051809103902060001916148015620015c15750600015158473ffffffffffffffffffffffffffffffffffffffff1663acffb62f6040518163ffffffff167c0100000000000000000000000000000000000000000000000000000000028152600401602060405180830381600087803b1580156200158057600080fd5b505af115801562001595573d6000803e3d6000fd5b505050506040513d6020811015620015ac57600080fd5b81019080805190602001909291905050501515145b15620016d5576001600380549050039250600383815481101515620015e257fe5b9060005260206000200160009054906101000a900473ffffffffffffffffffffffffffffffffffffffff1691508190508073ffffffffffffffffffffffffffffffffffffffff1663db4793c28760016040518363ffffffff167c0100000000000000000000000000000000000000000000000000000000028152600401808373ffffffffffffffffffffffffffffffffffffffff1673ffffffffffffffffffffffffffffffffffffffff1681526020018215151515815260200192505050600060405180830381600087803b158015620016bb57600080fd5b505af1158015620016d0573d6000803e3d6000fd5b505050505b505050505050565b600060608060608060606000889050876040518082805190602001908083835b602083101515620017245780518252602082019150602081019050602083039250620016fd565b6001836020036101000a03801982511681845116808217855250505050505090500191505060405180910390206040518082600019166000191681526020019150506040518091039020600019168173ffffffffffffffffffffffffffffffffffffffff1663459ac33a6040518163ffffffff167c0100000000000000000000000000000000000000000000000000000000028152600401600060405180830381600087803b158015620017d757600080fd5b505af1158015620017ec573d6000803e3d6000fd5b505050506040513d6000823e3d601f19601f8201168201806040525060208110156200181757600080fd5b8101908080516401000000008111156200183057600080fd5b828101905060208101848111156200184757600080fd5b81518560018202830111640100000000821117156200186557600080fd5b50509291905050506040518082805190602001908083835b602083101515620018a457805182526020820191506020810190506020830392506200187d565b6001836020036101000a038019825116818451168082178552505050505050905001915050604051809103902060001916141562001e77578073ffffffffffffffffffffffffffffffffffffffff1663acffb62f6040518163ffffffff167c0100000000000000000000000000000000000000000000000000000000028152600401602060405180830381600087803b1580156200194157600080fd5b505af115801562001956573d6000803e3d6000fd5b505050506040513d60208110156200196d57600080fd5b81019080805190602001909291905050508173ffffffffffffffffffffffffffffffffffffffff166317d7de7c6040518163ffffffff167c0100000000000000000000000000000000000000000000000000000000028152600401600060405180830381600087803b158015620019e357600080fd5b505af1158015620019f8573d6000803e3d6000fd5b505050506040513d6000823e3d601f19601f82011682018060405250602081101562001a2357600080fd5b81019080805164010000000081111562001a3c57600080fd5b8281019050602081018481111562001a5357600080fd5b815185600182028301116401000000008211171562001a7157600080fd5b50509291905050508273ffffffffffffffffffffffffffffffffffffffff16637e79e8ba6040518163ffffffff167c0100000000000000000000000000000000000000000000000000000000028152600401600060405180830381600087803b15801562001ade57600080fd5b505af115801562001af3573d6000803e3d6000fd5b505050506040513d6000823e3d601f19601f82011682018060405250602081101562001b1e57600080fd5b81019080805164010000000081111562001b3757600080fd5b8281019050602081018481111562001b4e57600080fd5b815185600182028301116401000000008211171562001b6c57600080fd5b50509291905050508373ffffffffffffffffffffffffffffffffffffffff16637211d5236040518163ffffffff167c0100000000000000000000000000000000000000000000000000000000028152600401600060405180830381600087803b15801562001bd957600080fd5b505af115801562001bee573d6000803e3d6000fd5b505050506040513d6000823e3d601f19601f82011682018060405250602081101562001c1957600080fd5b81019080805164010000000081111562001c3257600080fd5b8281019050602081018481111562001c4957600080fd5b815185600182028301116401000000008211171562001c6757600080fd5b50509291905050508473ffffffffffffffffffffffffffffffffffffffff16630379915d6040518163ffffffff167c0100000000000000000000000000000000000000000000000000000000028152600401600060405180830381600087803b15801562001cd457600080fd5b505af115801562001ce9573d6000803e3d6000fd5b505050506040513d6000823e3d601f19601f82011682018060405250602081101562001d1457600080fd5b81019080805164010000000081111562001d2d57600080fd5b8281019050602081018481111562001d4457600080fd5b815185600182028301116401000000008211171562001d6257600080fd5b50509291905050508573ffffffffffffffffffffffffffffffffffffffff16639e0c3ead6040518163ffffffff167c0100000000000000000000000000000000000000000000000000000000028152600401600060405180830381600087803b15801562001dcf57600080fd5b505af115801562001de4573d6000803e3d6000fd5b505050506040513d6000823e3d601f19601f82011682018060405250602081101562001e0f57600080fd5b81019080805164010000000081111562001e2857600080fd5b8281019050602081018481111562001e3f57600080fd5b815185600182028301116401000000008211171562001e5d57600080fd5b505092919050505096509650965096509650965062001edb565b6000602060405190810160405280600081525060206040519081016040528060008152506020604051908101604052806000815250602060405190810160405280600081525060206040519081016040528060008152509650965096509650965096505b509295509295509295565b6000829050816040518082805190602001908083835b60208310151562001f23578051825260208201915060208101905060208303925062001efc565b6001836020036101000a03801982511681845116808217855250505050505090500191505060405180910390206040518082600019166000191681526020019150506040518091039020600019168173ffffffffffffffffffffffffffffffffffffffff1663459ac33a6040518163ffffffff167c0100000000000000000000000000000000000000000000000000000000028152600401600060405180830381600087803b15801562001fd657600080fd5b505af115801562001feb573d6000803e3d6000fd5b505050506040513d6000823e3d601f19601f8201168201806040525060208110156200201657600080fd5b8101908080516401000000008111156200202f57600080fd5b828101905060208101848111156200204657600080fd5b81518560018202830111640100000000821117156200206457600080fd5b50509291905050506040518082805190602001908083835b602083101515620020a357805182526020820191506020810190506020830392506200207c565b6001836020036101000a038019825116818451168082178552505050505050905001915050604051809103902060001916148015620021875750600015158173ffffffffffffffffffffffffffffffffffffffff16639e2b39836040518163ffffffff167c0100000000000000000000000000000000000000000000000000000000028152600401602060405180830381600087803b1580156200214657600080fd5b505af11580156200215b573d6000803e3d6000fd5b505050506040513d60208110156200217257600080fd5b81019080805190602001909291905050501515145b15620022955760038173ffffffffffffffffffffffffffffffffffffffff1663d35abe036040518163ffffffff167c0100000000000000000000000000000000000000000000000000000000028152600401602060405180830381600087803b158015620021f457600080fd5b505af115801562002209573d6000803e3d6000fd5b505050506040513d60208110156200222057600080fd5b810190808051906020019092919050505090806001815401808255809150509060018203906000526020600020016000909192909190916101000a81548173ffffffffffffffffffffffffffffffffffffffff021916908373ffffffffffffffffffffffffffffffffffffffff160217905550505b505050565b6040516110a580620022ac83390190560060806040523480156200001157600080fd5b50604051620010a5380380620010a5833981018060405281019080805190602001909291908051820192919060200180518201929190505050826000806101000a81548160ff02191690831515021790555081600190805190602001906200007b929190620000b9565b50806002908051906020019062000094929190620000b9565b506000600760006101000a81548160ff02191690831515021790555050505062000168565b828054600181600116156101000203166002900490600052602060002090601f016020900481019282601f10620000fc57805160ff19168380011785556200012d565b828001600101855582156200012d579182015b828111156200012c5782518255916020019190600101906200010f565b5b5090506200013c919062000140565b5090565b6200016591905b808211156200016157600081600090555060010162000147565b5090565b90565b610f2d80620001786000396000f3006080604052600436106100e6576000357c0100000000000000000000000000000000000000000000000000000000900463ffffffff1680630379915d146100eb57806317d7de7c1461017b5780631e2a83bb1461020b578063282b065a14610283578063459ac33a146102ec5780637211d5231461037c5780637e79e8ba1461040c5780638828a6751461049c5780639e0c3ead146105465780639e2b3983146105d6578063acffb62f14610605578063d1ad6efe14610634578063d35abe031461069d578063db4793c2146106f4578063dd9e54b314610743578063f07513eb146107ac575b600080fd5b3480156100f757600080fd5b50610100610815565b6040518080602001828103825283818151815260200191508051906020019080838360005b83811015610140578082015181840152602081019050610125565b50505050905090810190601f16801561016d5780820380516001836020036101000a031916815260200191505b509250505060405180910390f35b34801561018757600080fd5b506101906108b7565b6040518080602001828103825283818151815260200191508051906020019080838360005b838110156101d05780820151818401526020810190506101b5565b50505050905090810190601f1680156101fd5780820380516001836020036101000a031916815260200191505b509250505060405180910390f35b34801561021757600080fd5b5061023660048036038101908080359060200190929190505050610959565b604051808373ffffffffffffffffffffffffffffffffffffffff1673ffffffffffffffffffffffffffffffffffffffff168152602001821515151581526020019250505060405180910390f35b34801561028f57600080fd5b506102ea600480360381019080803590602001908201803590602001908080601f01602080910402602001604051908101604052809392919081815260200183838082843782019150505050505091929192905050506109b5565b005b3480156102f857600080fd5b506103016109cf565b6040518080602001828103825283818151815260200191508051906020019080838360005b83811015610341578082015181840152602081019050610326565b50505050905090810190601f16801561036e5780820380516001836020036101000a031916815260200191505b509250505060405180910390f35b34801561038857600080fd5b50610391610a48565b6040518080602001828103825283818151815260200191508051906020019080838360005b838110156103d15780820151818401526020810190506103b6565b50505050905090810190601f1680156103fe5780820380516001836020036101000a031916815260200191505b509250505060405180910390f35b34801561041857600080fd5b50610421610aea565b6040518080602001828103825283818151815260200191508051906020019080838360005b83811015610461578082015181840152602081019050610446565b50505050905090810190601f16801561048e5780820380516001836020036101000a031916815260200191505b509250505060405180910390f35b3480156104a857600080fd5b506104cb6004803603810190808035600019169060200190929190505050610b8c565b6040518080602001828103825283818151815260200191508051906020019080838360005b8381101561050b5780820151818401526020810190506104f0565b50505050905090810190601f1680156105385780820380516001836020036101000a031916815260200191505b509250505060405180910390f35b34801561055257600080fd5b5061055b610c58565b6040518080602001828103825283818151815260200191508051906020019080838360005b8381101561059b578082015181840152602081019050610580565b50505050905090810190601f1680156105c85780820380516001836020036101000a031916815260200191505b509250505060405180910390f35b3480156105e257600080fd5b506105eb610cfa565b604051808215151515815260200191505060405180910390f35b34801561061157600080fd5b5061061a610d11565b604051808215151515815260200191505060405180910390f35b34801561064057600080fd5b5061069b600480360381019080803590602001908201803590602001908080601f0160208091040260200160405190810160405280939291908181526020018383808284378201915050505050509192919290505050610d27565b005b3480156106a957600080fd5b506106b2610d41565b604051808273ffffffffffffffffffffffffffffffffffffffff1673ffffffffffffffffffffffffffffffffffffffff16815260200191505060405180910390f35b34801561070057600080fd5b50610741600480360381019080803573ffffffffffffffffffffffffffffffffffffffff169060200190929190803515159060200190929190505050610d64565b005b34801561074f57600080fd5b506107aa600480360381019080803590602001908201803590602001908080601f0160208091040260200160405190810160405280939291908181526020018383808284378201915050505050509192919290505050610e28565b005b3480156107b857600080fd5b50610813600480360381019080803590602001908201803590602001908080601f0160208091040260200160405190810160405280939291908181526020018383808284378201915050505050509192919290505050610e42565b005b606060038054600181600116156101000203166002900480601f0160208091040260200160405190810160405280929190818152602001828054600181600116156101000203166002900480156108ad5780601f10610882576101008083540402835291602001916108ad565b820191906000526020600020905b81548152906001019060200180831161089057829003601f168201915b5050505050905090565b606060018054600181600116156101000203166002900480601f01602080910402602001604051908101604052809291908181526020018280546001816001161561010002031660029004801561094f5780601f106109245761010080835404028352916020019161094f565b820191906000526020600020905b81548152906001019060200180831161093257829003601f168201915b5050505050905090565b60088181548110151561096857fe5b906000526020600020016000915090508060000160009054906101000a900473ffffffffffffffffffffffffffffffffffffffff16908060000160149054906101000a900460ff16905082565b80600590805190602001906109cb929190610e5c565b5050565b6060610a4360026040518082805460018160011615610100020316600290048015610a315780601f10610a0f576101008083540402835291820191610a31565b820191906000526020600020905b815481529060010190602001808311610a1d575b50509150506040518091039020610b8c565b905090565b606060068054600181600116156101000203166002900480601f016020809104026020016040519081016040528092919081815260200182805460018160011615610100020316600290048015610ae05780601f10610ab557610100808354040283529160200191610ae0565b820191906000526020600020905b815481529060010190602001808311610ac357829003601f168201915b5050505050905090565b606060058054600181600116156101000203166002900480601f016020809104026020016040519081016040528092919081815260200182805460018160011615610100020316600290048015610b825780601f10610b5757610100808354040283529160200191610b82565b820191906000526020600020905b815481529060010190602001808311610b6557829003601f168201915b5050505050905090565b606080600060206040519080825280601f01601f191660200182016040528015610bc55781602001602082028038833980820191505090505b5091505b6020811015610c4e578381602081101515610be057fe5b1a7f0100000000000000000000000000000000000000000000000000000000000000028282815181101515610c1157fe5b9060200101907effffffffffffffffffffffffffffffffffffffffffffffffffffffffffffff1916908160001a9053508080600101915050610bc9565b8192505050919050565b606060048054600181600116156101000203166002900480601f016020809104026020016040519081016040528092919081815260200182805460018160011615610100020316600290048015610cf05780601f10610cc557610100808354040283529160200191610cf0565b820191906000526020600020905b815481529060010190602001808311610cd357829003601f168201915b5050505050905090565b6000600760009054906101000a900460ff16905090565b60008060009054906101000a900460ff16905090565b8060049080519060200190610d3d929190610e5c565b5050565b60006001600760006101000a81548160ff02191690831515021790555030905090565b600860408051908101604052808473ffffffffffffffffffffffffffffffffffffffff16815260200183151581525090806001815401808255809150509060018203906000526020600020016000909192909190915060008201518160000160006101000a81548173ffffffffffffffffffffffffffffffffffffffff021916908373ffffffffffffffffffffffffffffffffffffffff16021790555060208201518160000160146101000a81548160ff0219169083151502179055505050505050565b8060069080519060200190610e3e929190610e5c565b5050565b8060039080519060200190610e58929190610e5c565b5050565b828054600181600116156101000203166002900490600052602060002090601f016020900481019282601f10610e9d57805160ff1916838001178555610ecb565b82800160010185558215610ecb579182015b82811115610eca578251825591602001919060010190610eaf565b5b509050610ed89190610edc565b5090565b610efe91905b80821115610efa576000816000905550600101610ee2565b5090565b905600a165627a7a72305820f55b6b22de78e51f3c97daa0683b33f9d2b50efaf8aeb6e47318c02b77b6a50e0029a165627a7a723058207beee649f9d84b17f9e937e4dce7bb3d945884e54c2a95eaa2ea27022eb2a0340029",
  "source": "pragma solidity ^0.4.24;\n\ncontract SimpleContract{\n    uint public numberOfUserAccounts;\n    uint public numberOfEndorserAccounts;\n    \n    event AllotedAddress(address AllotedAddress);\n    event AllotedAddressEndorser(address AllotedAddressEndorser);\n    \n    constructor(){\n        numberOfUserAccounts = 0;\n        numberOfEndorserAccounts=0;\n        \n    }\n    \n    \n    function createUserAccount(string name, string password, string city, string country,string email,string DOB) returns(address){\n        \n        address a = new User(true, name, password);\n        AllotedAddress(a);\n        User user = User(a);\n        user.setCity(city);\n        user.setCountry(country);\n        user.setEmail(email);\n        user.setDOB(DOB);\n        numberOfUserAccounts++;\n        \n        return a;\n    }\n    \n    \n    function getDetails(address addr, string pw) returns(bool,string,string,string,string,string){\n        User user = User(addr);\n        if(keccak256(user.getPassordHash())==keccak256(keccak256(pw))){\n            return (user.getTypeOfUser(),user.getName(),user.getEmail(),user.getDOB(),user.getCity(),user.getCountry());\n        }\n        else return(false,\"\",\"\",\"\",\"\",\"\");\n        \n    }\n    \n    address[] public Endorsers;\n    address[] public AppliedEndorsementList;\n    \n    function createEndorser(string name, string pw)returns(address){\n        address a = new User(false, name, pw);\n        AllotedAddressEndorser(a);\n        Endorsers.push(a);\n        numberOfEndorserAccounts++;\n        return a;\n    }\n    \n    function applyForEndorsemntMain(address addr, string pw){\n        User user = User(addr);\n        if(keccak256(user.getPassordHash())==keccak256(keccak256(pw)) && user.getEndorsementStatus()==false){\n        AppliedEndorsementList.push(user.applyForEndorsement());\n            \n        }\n        \n    }\n    \n    function Endorse(address addr, string pw){ // here endorsers address and pw are required\n        User user = User(addr);\n        if(keccak256(user.getPassordHash())==keccak256(keccak256(pw)) && user.getTypeOfUser()==false){\n            uint arraySize = AppliedEndorsementList.length - 1;\n            address a = AppliedEndorsementList[arraySize];\n            User userU = User(a);\n            userU.AddEndorsement(addr,true);\n        }\n    }\n    \n    //function for testing\n    function createDefualtEndorsers(){\n        createEndorser(\"Haady\",\"123\");\n        createEndorser(\"Waleed\",\"123\");\n        createEndorser(\"Hasan\",\"123\");\n    }\n\n    function getEndorserFromList(uint n) returns (address){\n        if (n>Endorsers.length)\n        throw;\n\n        return Endorsers[n];\n\n    }\n    \n    \n    \n}\n\ncontract User{\n    bool typeOfUser; // true for User, false for endorser\n    string name;\n    string passwordHash;\n    \n    string city;\n    string country;\n    string email;\n    string DOB;\n    \n    bool EndorsmentStatus;\n    \n    struct EndorsmentDetails{\n        address EndorsedBy;\n        bool Verified;\n        \n    }\n    EndorsmentDetails[] public Endorsments;\n    \n    constructor(bool t, string n, string password){\n        typeOfUser = t;\n        name = n;\n        passwordHash = password;\n        EndorsmentStatus = false;\n        \n    }\n    function setCity(string c){\n        city = c;\n    }\n    function setCountry(string cntry){\n        country = cntry;\n    }\n    function setEmail(string em){\n        email = em;\n    }\n    function setDOB(string dob){\n        DOB = dob;\n        \n    }\n    \n    function getPassordHash() returns(string){\n        return bytes32toString(keccak256(passwordHash));\n    }\n    function getName() returns(string){\n        return name;\n    }\n    function getCity() returns(string){\n        return city;\n    }\n    function getCountry() returns(string){\n        return country;\n    }\n    function getEmail() returns (string){\n        return email;\n    }\n    function getDOB() returns( string ){\n        return DOB;\n    }\n    function getEndorsementStatus() returns(bool){\n        return EndorsmentStatus;\n    }\n    function getTypeOfUser()returns(bool){\n        return typeOfUser;\n    }\n    \n     function bytes32toString(bytes32 _bytes32) public constant returns(string){\n        bytes memory bytesArray = new bytes(32);\n        for(uint256 i; i<32;i++){\n            bytesArray[i]=_bytes32[i];\n        }\n        return string(bytesArray);\n    }\n    \n    function applyForEndorsement()returns(address){\n        EndorsmentStatus = true;\n        return this;\n    }\n    \n    function AddEndorsement(address addr, bool v){\n        Endorsments.push(EndorsmentDetails(addr,v));\n    }\n    \n}\n    \n    \n    \n\n\n\n\n\n\n\n\n\n\n\n\n\n\n\n\n\n// pragma solidity ^0.4.22;\n\n// contract SimpleContract {\n\n// \t    event showString(address AllotedAddress);\n    \n//     mapping (address => address) listofAccounts;\n\n//     function createWallet(bytes32 name, bytes32 age, bytes32 pAddres)returns (string){\n//         address a  = new Wallet(name, age, pAddres);\n//         showString(a);\n//         return toString(a);\n//     }\n        \n//         function getData(address adr) payable returns(bytes32, bytes32, bytes32){\n//             Wallet wallet = Wallet(adr);\n            \n            \n            \n//         return (wallet.getName(),wallet.getAge(),wallet.getAddress());\n        \n//     }\n\n//     function toString(address x)private returns (string) {\n//     bytes memory b = new bytes(20);\n//     for (uint i = 0; i < 20; i++)\n//         b[i] = byte(uint8(uint(x) / (2**(8*(19 - i)))));\n//     return string(b);\n//     }\n    \n// }\n// contract Wallet{\n//     event showStringWallet(bytes32 name, bytes32 age,bytes32 pAddress);\n    \n//     bytes32 name;\n//     bytes32 age;\n//     bytes32 pAddress;\n    \n//     function Wallet(bytes32 n, bytes32 a, bytes32 p){\n//         showStringWallet(n, a, p);\n//         name=n;\n//         age=a;\n//         pAddress=p;\n        \n\n//     }\n    \n//     function getName() returns(bytes32){\n//         return name;\n//     }\n//     function getAge() returns(bytes32){\n//         return age;\n//     }\n//     function getAddress() returns(bytes32){\n//         return pAddress;\n//     }\n    \n// }",
  "sourcePath": "C:\\Users\\Waleed\\Desktop\\TruffleAngularBox-master\\TruffleAngularBox-master\\contracts\\SimpleContract.sol",
  "compiler": {
    "name": "solc",
    "version": "0.4.24+commit.e67f0147.Emscripten.clang"
  },
  "schemaVersion": "2.0.0",
  "updatedAt": "2018-08-25T11:41:49.422Z"
}