{
  "contractName": "User",
  "abi": [
    {
      "constant": true,
      "inputs": [
        {
          "name": "",
          "type": "uint256"
        }
      ],
      "name": "Endorsments",
      "outputs": [
        {
          "name": "EndorsedBy",
          "type": "address"
        },
        {
          "name": "Verified",
          "type": "bool"
        }
      ],
      "payable": false,
      "stateMutability": "view",
      "type": "function"
    },
    {
      "inputs": [
        {
          "name": "t",
          "type": "bool"
        },
        {
          "name": "n",
          "type": "string"
        },
        {
          "name": "password",
          "type": "string"
        }
      ],
      "payable": false,
      "stateMutability": "nonpayable",
      "type": "constructor"
    },
    {
      "constant": false,
      "inputs": [
        {
          "name": "c",
          "type": "string"
        }
      ],
      "name": "setCity",
      "outputs": [],
      "payable": false,
      "stateMutability": "nonpayable",
      "type": "function"
    },
    {
      "constant": false,
      "inputs": [
        {
          "name": "cntry",
          "type": "string"
        }
      ],
      "name": "setCountry",
      "outputs": [],
      "payable": false,
      "stateMutability": "nonpayable",
      "type": "function"
    },
    {
      "constant": false,
      "inputs": [
        {
          "name": "em",
          "type": "string"
        }
      ],
      "name": "setEmail",
      "outputs": [],
      "payable": false,
      "stateMutability": "nonpayable",
      "type": "function"
    },
    {
      "constant": false,
      "inputs": [
        {
          "name": "dob",
          "type": "string"
        }
      ],
      "name": "setDOB",
      "outputs": [],
      "payable": false,
      "stateMutability": "nonpayable",
      "type": "function"
    },
    {
      "constant": false,
      "inputs": [],
      "name": "getPassordHash",
      "outputs": [
        {
          "name": "",
          "type": "string"
        }
      ],
      "payable": false,
      "stateMutability": "nonpayable",
      "type": "function"
    },
    {
      "constant": false,
      "inputs": [],
      "name": "getName",
      "outputs": [
        {
          "name": "",
          "type": "string"
        }
      ],
      "payable": false,
      "stateMutability": "nonpayable",
      "type": "function"
    },
    {
      "constant": false,
      "inputs": [],
      "name": "getCity",
      "outputs": [
        {
          "name": "",
          "type": "string"
        }
      ],
      "payable": false,
      "stateMutability": "nonpayable",
      "type": "function"
    },
    {
      "constant": false,
      "inputs": [],
      "name": "getCountry",
      "outputs": [
        {
          "name": "",
          "type": "string"
        }
      ],
      "payable": false,
      "stateMutability": "nonpayable",
      "type": "function"
    },
    {
      "constant": false,
      "inputs": [],
      "name": "getEmail",
      "outputs": [
        {
          "name": "",
          "type": "string"
        }
      ],
      "payable": false,
      "stateMutability": "nonpayable",
      "type": "function"
    },
    {
      "constant": false,
      "inputs": [],
      "name": "getDOB",
      "outputs": [
        {
          "name": "",
          "type": "string"
        }
      ],
      "payable": false,
      "stateMutability": "nonpayable",
      "type": "function"
    },
    {
      "constant": false,
      "inputs": [],
      "name": "getEndorsementStatus",
      "outputs": [
        {
          "name": "",
          "type": "bool"
        }
      ],
      "payable": false,
      "stateMutability": "nonpayable",
      "type": "function"
    },
    {
      "constant": false,
      "inputs": [],
      "name": "getTypeOfUser",
      "outputs": [
        {
          "name": "",
          "type": "bool"
        }
      ],
      "payable": false,
      "stateMutability": "nonpayable",
      "type": "function"
    },
    {
      "constant": true,
      "inputs": [
        {
          "name": "_bytes32",
          "type": "bytes32"
        }
      ],
      "name": "bytes32toString",
      "outputs": [
        {
          "name": "",
          "type": "string"
        }
      ],
      "payable": false,
      "stateMutability": "view",
      "type": "function"
    },
    {
      "constant": false,
      "inputs": [],
      "name": "applyForEndorsement",
      "outputs": [
        {
          "name": "",
          "type": "address"
        }
      ],
      "payable": false,
      "stateMutability": "nonpayable",
      "type": "function"
    },
    {
      "constant": false,
      "inputs": [
        {
          "name": "addr",
          "type": "address"
        },
        {
          "name": "v",
          "type": "bool"
        }
      ],
      "name": "AddEndorsement",
      "outputs": [],
      "payable": false,
      "stateMutability": "nonpayable",
      "type": "function"
    }
  ],
  "bytecode": "0x60806040523480156200001157600080fd5b50604051620010a5380380620010a5833981018060405281019080805190602001909291908051820192919060200180518201929190505050826000806101000a81548160ff02191690831515021790555081600190805190602001906200007b929190620000b9565b50806002908051906020019062000094929190620000b9565b506000600760006101000a81548160ff02191690831515021790555050505062000168565b828054600181600116156101000203166002900490600052602060002090601f016020900481019282601f10620000fc57805160ff19168380011785556200012d565b828001600101855582156200012d579182015b828111156200012c5782518255916020019190600101906200010f565b5b5090506200013c919062000140565b5090565b6200016591905b808211156200016157600081600090555060010162000147565b5090565b90565b610f2d80620001786000396000f3006080604052600436106100e6576000357c0100000000000000000000000000000000000000000000000000000000900463ffffffff1680630379915d146100eb57806317d7de7c1461017b5780631e2a83bb1461020b578063282b065a14610283578063459ac33a146102ec5780637211d5231461037c5780637e79e8ba1461040c5780638828a6751461049c5780639e0c3ead146105465780639e2b3983146105d6578063acffb62f14610605578063d1ad6efe14610634578063d35abe031461069d578063db4793c2146106f4578063dd9e54b314610743578063f07513eb146107ac575b600080fd5b3480156100f757600080fd5b50610100610815565b6040518080602001828103825283818151815260200191508051906020019080838360005b83811015610140578082015181840152602081019050610125565b50505050905090810190601f16801561016d5780820380516001836020036101000a031916815260200191505b509250505060405180910390f35b34801561018757600080fd5b506101906108b7565b6040518080602001828103825283818151815260200191508051906020019080838360005b838110156101d05780820151818401526020810190506101b5565b50505050905090810190601f1680156101fd5780820380516001836020036101000a031916815260200191505b509250505060405180910390f35b34801561021757600080fd5b5061023660048036038101908080359060200190929190505050610959565b604051808373ffffffffffffffffffffffffffffffffffffffff1673ffffffffffffffffffffffffffffffffffffffff168152602001821515151581526020019250505060405180910390f35b34801561028f57600080fd5b506102ea600480360381019080803590602001908201803590602001908080601f01602080910402602001604051908101604052809392919081815260200183838082843782019150505050505091929192905050506109b5565b005b3480156102f857600080fd5b506103016109cf565b6040518080602001828103825283818151815260200191508051906020019080838360005b83811015610341578082015181840152602081019050610326565b50505050905090810190601f16801561036e5780820380516001836020036101000a031916815260200191505b509250505060405180910390f35b34801561038857600080fd5b50610391610a48565b6040518080602001828103825283818151815260200191508051906020019080838360005b838110156103d15780820151818401526020810190506103b6565b50505050905090810190601f1680156103fe5780820380516001836020036101000a031916815260200191505b509250505060405180910390f35b34801561041857600080fd5b50610421610aea565b6040518080602001828103825283818151815260200191508051906020019080838360005b83811015610461578082015181840152602081019050610446565b50505050905090810190601f16801561048e5780820380516001836020036101000a031916815260200191505b509250505060405180910390f35b3480156104a857600080fd5b506104cb6004803603810190808035600019169060200190929190505050610b8c565b6040518080602001828103825283818151815260200191508051906020019080838360005b8381101561050b5780820151818401526020810190506104f0565b50505050905090810190601f1680156105385780820380516001836020036101000a031916815260200191505b509250505060405180910390f35b34801561055257600080fd5b5061055b610c58565b6040518080602001828103825283818151815260200191508051906020019080838360005b8381101561059b578082015181840152602081019050610580565b50505050905090810190601f1680156105c85780820380516001836020036101000a031916815260200191505b509250505060405180910390f35b3480156105e257600080fd5b506105eb610cfa565b604051808215151515815260200191505060405180910390f35b34801561061157600080fd5b5061061a610d11565b604051808215151515815260200191505060405180910390f35b34801561064057600080fd5b5061069b600480360381019080803590602001908201803590602001908080601f0160208091040260200160405190810160405280939291908181526020018383808284378201915050505050509192919290505050610d27565b005b3480156106a957600080fd5b506106b2610d41565b604051808273ffffffffffffffffffffffffffffffffffffffff1673ffffffffffffffffffffffffffffffffffffffff16815260200191505060405180910390f35b34801561070057600080fd5b50610741600480360381019080803573ffffffffffffffffffffffffffffffffffffffff169060200190929190803515159060200190929190505050610d64565b005b34801561074f57600080fd5b506107aa600480360381019080803590602001908201803590602001908080601f0160208091040260200160405190810160405280939291908181526020018383808284378201915050505050509192919290505050610e28565b005b3480156107b857600080fd5b50610813600480360381019080803590602001908201803590602001908080601f0160208091040260200160405190810160405280939291908181526020018383808284378201915050505050509192919290505050610e42565b005b606060038054600181600116156101000203166002900480601f0160208091040260200160405190810160405280929190818152602001828054600181600116156101000203166002900480156108ad5780601f10610882576101008083540402835291602001916108ad565b820191906000526020600020905b81548152906001019060200180831161089057829003601f168201915b5050505050905090565b606060018054600181600116156101000203166002900480601f01602080910402602001604051908101604052809291908181526020018280546001816001161561010002031660029004801561094f5780601f106109245761010080835404028352916020019161094f565b820191906000526020600020905b81548152906001019060200180831161093257829003601f168201915b5050505050905090565b60088181548110151561096857fe5b906000526020600020016000915090508060000160009054906101000a900473ffffffffffffffffffffffffffffffffffffffff16908060000160149054906101000a900460ff16905082565b80600590805190602001906109cb929190610e5c565b5050565b6060610a4360026040518082805460018160011615610100020316600290048015610a315780601f10610a0f576101008083540402835291820191610a31565b820191906000526020600020905b815481529060010190602001808311610a1d575b50509150506040518091039020610b8c565b905090565b606060068054600181600116156101000203166002900480601f016020809104026020016040519081016040528092919081815260200182805460018160011615610100020316600290048015610ae05780601f10610ab557610100808354040283529160200191610ae0565b820191906000526020600020905b815481529060010190602001808311610ac357829003601f168201915b5050505050905090565b606060058054600181600116156101000203166002900480601f016020809104026020016040519081016040528092919081815260200182805460018160011615610100020316600290048015610b825780601f10610b5757610100808354040283529160200191610b82565b820191906000526020600020905b815481529060010190602001808311610b6557829003601f168201915b5050505050905090565b606080600060206040519080825280601f01601f191660200182016040528015610bc55781602001602082028038833980820191505090505b5091505b6020811015610c4e578381602081101515610be057fe5b1a7f0100000000000000000000000000000000000000000000000000000000000000028282815181101515610c1157fe5b9060200101907effffffffffffffffffffffffffffffffffffffffffffffffffffffffffffff1916908160001a9053508080600101915050610bc9565b8192505050919050565b606060048054600181600116156101000203166002900480601f016020809104026020016040519081016040528092919081815260200182805460018160011615610100020316600290048015610cf05780601f10610cc557610100808354040283529160200191610cf0565b820191906000526020600020905b815481529060010190602001808311610cd357829003601f168201915b5050505050905090565b6000600760009054906101000a900460ff16905090565b60008060009054906101000a900460ff16905090565b8060049080519060200190610d3d929190610e5c565b5050565b60006001600760006101000a81548160ff02191690831515021790555030905090565b600860408051908101604052808473ffffffffffffffffffffffffffffffffffffffff16815260200183151581525090806001815401808255809150509060018203906000526020600020016000909192909190915060008201518160000160006101000a81548173ffffffffffffffffffffffffffffffffffffffff021916908373ffffffffffffffffffffffffffffffffffffffff16021790555060208201518160000160146101000a81548160ff0219169083151502179055505050505050565b8060069080519060200190610e3e929190610e5c565b5050565b8060039080519060200190610e58929190610e5c565b5050565b828054600181600116156101000203166002900490600052602060002090601f016020900481019282601f10610e9d57805160ff1916838001178555610ecb565b82800160010185558215610ecb579182015b82811115610eca578251825591602001919060010190610eaf565b5b509050610ed89190610edc565b5090565b610efe91905b80821115610efa576000816000905550600101610ee2565b5090565b905600a165627a7a72305820f55b6b22de78e51f3c97daa0683b33f9d2b50efaf8aeb6e47318c02b77b6a50e0029",
  "source": "pragma solidity ^0.4.24;\n\ncontract SimpleContract{\n    uint public numberOfUserAccounts;\n    uint public numberOfEndorserAccounts;\n    \n    event AllotedAddress(address AllotedAddress);\n    event AllotedAddressEndorser(address AllotedAddressEndorser);\n    \n    constructor(){\n        numberOfUserAccounts = 0;\n        numberOfEndorserAccounts=0;\n        \n    }\n    \n    \n    function createUserAccount(string name, string password, string city, string country,string email,string DOB) returns(address){\n        \n        address a = new User(true, name, password);\n        AllotedAddress(a);\n        User user = User(a);\n        user.setCity(city);\n        user.setCountry(country);\n        user.setEmail(email);\n        user.setDOB(DOB);\n        numberOfUserAccounts++;\n        \n        return a;\n    }\n    \n    \n    function getDetails(address addr, string pw) returns(bool,string,string,string,string,string){\n        User user = User(addr);\n        if(keccak256(user.getPassordHash())==keccak256(keccak256(pw))){\n            return (user.getTypeOfUser(),user.getName(),user.getEmail(),user.getDOB(),user.getCity(),user.getCountry());\n        }\n        else return(false,\"\",\"\",\"\",\"\",\"\");\n        \n    }\n    \n    address[] public Endorsers;\n    address[] public AppliedEndorsementList;\n    \n    function createEndorser(string name, string pw)returns(address){\n        address a = new User(false, name, pw);\n        AllotedAddressEndorser(a);\n        Endorsers.push(a);\n        numberOfEndorserAccounts++;\n        return a;\n    }\n    \n    function applyForEndorsemntMain(address addr, string pw){\n        User user = User(addr);\n        if(keccak256(user.getPassordHash())==keccak256(keccak256(pw)) && user.getEndorsementStatus()==false){\n        AppliedEndorsementList.push(user.applyForEndorsement());\n            \n        }\n        \n    }\n    \n    function Endorse(address addr, string pw){ // here endorsers address and pw are required\n        User user = User(addr);\n        if(keccak256(user.getPassordHash())==keccak256(keccak256(pw)) && user.getTypeOfUser()==false){\n            uint arraySize = AppliedEndorsementList.length - 1;\n            address a = AppliedEndorsementList[arraySize];\n            User userU = User(a);\n            userU.AddEndorsement(addr,true);\n        }\n    }\n    \n    //function for testing\n    function createDefualtEndorsers(){\n        createEndorser(\"Haady\",\"123\");\n        createEndorser(\"Waleed\",\"123\");\n        createEndorser(\"Hasan\",\"123\");\n    }\n\n    function getEndorserFromList(uint n) returns (address){\n        if (n>Endorsers.length)\n        throw;\n\n        return Endorsers[n];\n\n    }\n    \n    \n    \n}\n\ncontract User{\n    bool typeOfUser; // true for User, false for endorser\n    string name;\n    string passwordHash;\n    \n    string city;\n    string country;\n    string email;\n    string DOB;\n    \n    bool EndorsmentStatus;\n    \n    struct EndorsmentDetails{\n        address EndorsedBy;\n        bool Verified;\n        \n    }\n    EndorsmentDetails[] public Endorsments;\n    \n    constructor(bool t, string n, string password){\n        typeOfUser = t;\n        name = n;\n        passwordHash = password;\n        EndorsmentStatus = false;\n        \n    }\n    function setCity(string c){\n        city = c;\n    }\n    function setCountry(string cntry){\n        country = cntry;\n    }\n    function setEmail(string em){\n        email = em;\n    }\n    function setDOB(string dob){\n        DOB = dob;\n        \n    }\n    \n    function getPassordHash() returns(string){\n        return bytes32toString(keccak256(passwordHash));\n    }\n    function getName() returns(string){\n        return name;\n    }\n    function getCity() returns(string){\n        return city;\n    }\n    function getCountry() returns(string){\n        return country;\n    }\n    function getEmail() returns (string){\n        return email;\n    }\n    function getDOB() returns( string ){\n        return DOB;\n    }\n    function getEndorsementStatus() returns(bool){\n        return EndorsmentStatus;\n    }\n    function getTypeOfUser()returns(bool){\n        return typeOfUser;\n    }\n    \n     function bytes32toString(bytes32 _bytes32) public constant returns(string){\n        bytes memory bytesArray = new bytes(32);\n        for(uint256 i; i<32;i++){\n            bytesArray[i]=_bytes32[i];\n        }\n        return string(bytesArray);\n    }\n    \n    function applyForEndorsement()returns(address){\n        EndorsmentStatus = true;\n        return this;\n    }\n    \n    function AddEndorsement(address addr, bool v){\n        Endorsments.push(EndorsmentDetails(addr,v));\n    }\n    \n}\n    \n    \n    \n\n\n\n\n\n\n\n\n\n\n\n\n\n\n\n\n\n// pragma solidity ^0.4.22;\n\n// contract SimpleContract {\n\n// \t    event showString(address AllotedAddress);\n    \n//     mapping (address => address) listofAccounts;\n\n//     function createWallet(bytes32 name, bytes32 age, bytes32 pAddres)returns (string){\n//         address a  = new Wallet(name, age, pAddres);\n//         showString(a);\n//         return toString(a);\n//     }\n        \n//         function getData(address adr) payable returns(bytes32, bytes32, bytes32){\n//             Wallet wallet = Wallet(adr);\n            \n            \n            \n//         return (wallet.getName(),wallet.getAge(),wallet.getAddress());\n        \n//     }\n\n//     function toString(address x)private returns (string) {\n//     bytes memory b = new bytes(20);\n//     for (uint i = 0; i < 20; i++)\n//         b[i] = byte(uint8(uint(x) / (2**(8*(19 - i)))));\n//     return string(b);\n//     }\n    \n// }\n// contract Wallet{\n//     event showStringWallet(bytes32 name, bytes32 age,bytes32 pAddress);\n    \n//     bytes32 name;\n//     bytes32 age;\n//     bytes32 pAddress;\n    \n//     function Wallet(bytes32 n, bytes32 a, bytes32 p){\n//         showStringWallet(n, a, p);\n//         name=n;\n//         age=a;\n//         pAddress=p;\n        \n\n//     }\n    \n//     function getName() returns(bytes32){\n//         return name;\n//     }\n//     function getAge() returns(bytes32){\n//         return age;\n//     }\n//     function getAddress() returns(bytes32){\n//         return pAddress;\n//     }\n    \n// }",
  "sourcePath": "C:\\Users\\Waleed\\Desktop\\TruffleAngularBox-master\\TruffleAngularBox-master\\contracts\\SimpleContract.sol",
  "compiler": {
    "name": "solc",
    "version": "0.4.24+commit.e67f0147.Emscripten.clang"
  },
  "schemaVersion": "2.0.0",
  "updatedAt": "2018-08-25T11:41:47.758Z"
}