{
  "contractName": "Wallet",
  "abi": [
    {
      "inputs": [
        {
          "name": "n",
          "type": "bytes32"
        },
        {
          "name": "a",
          "type": "bytes32"
        },
        {
          "name": "p",
          "type": "bytes32"
        }
      ],
      "payable": false,
      "stateMutability": "nonpayable",
      "type": "constructor"
    },
    {
      "anonymous": false,
      "inputs": [
        {
          "indexed": false,
          "name": "name",
          "type": "bytes32"
        },
        {
          "indexed": false,
          "name": "age",
          "type": "bytes32"
        },
        {
          "indexed": false,
          "name": "pAddress",
          "type": "bytes32"
        }
      ],
      "name": "showStringWallet",
      "type": "event"
    },
    {
      "constant": false,
      "inputs": [],
      "name": "getName",
      "outputs": [
        {
          "name": "",
          "type": "bytes32"
        }
      ],
      "payable": false,
      "stateMutability": "nonpayable",
      "type": "function"
    },
    {
      "constant": false,
      "inputs": [],
      "name": "getAge",
      "outputs": [
        {
          "name": "",
          "type": "bytes32"
        }
      ],
      "payable": false,
      "stateMutability": "nonpayable",
      "type": "function"
    },
    {
      "constant": false,
      "inputs": [],
      "name": "getAddress",
      "outputs": [
        {
          "name": "",
          "type": "bytes32"
        }
      ],
      "payable": false,
      "stateMutability": "nonpayable",
      "type": "function"
    }
  ],
  "bytecode": "0x608060405234801561001057600080fd5b506040516060806102178339810180604052810190808051906020019092919080519060200190929190805190602001909291905050507fc98b7fd4fa98997171e4f4bf0cc6d11956e8fc1a7fae59fb0b20f9d04f64fe2b83838360405180846000191660001916815260200183600019166000191681526020018260001916600019168152602001935050505060405180910390a182600081600019169055508160018160001916905550806002816000191690555050505061013e806100d96000396000f300608060405260043610610057576000357c0100000000000000000000000000000000000000000000000000000000900463ffffffff16806317d7de7c1461005c57806338cc48311461008f578063967e6e65146100c2575b600080fd5b34801561006857600080fd5b506100716100f5565b60405180826000191660001916815260200191505060405180910390f35b34801561009b57600080fd5b506100a46100fe565b60405180826000191660001916815260200191505060405180910390f35b3480156100ce57600080fd5b506100d7610108565b60405180826000191660001916815260200191505060405180910390f35b60008054905090565b6000600254905090565b60006001549050905600a165627a7a723058208d59ce43d9a3207a1b3ad96e95fa20b4dae8219210cb0f3e3d884d748595dfb10029",
  "source": "pragma solidity ^0.4.17;\n\ncontract SimpleContract {\n\n\t    event showString(address AllotedAddress);\n    \n    mapping (address => address) listofAccounts;\n\n    function createWallet(bytes32 name, bytes32 age, bytes32 pAddres)returns (string){\n        address a  = new Wallet(name, age, pAddres);\n        showString(a);\n        return toString(a);\n    }\n        \n        function getData(address adr) payable returns(bytes32, bytes32, bytes32){\n            Wallet wallet = Wallet(adr);\n            \n            \n            \n        return (wallet.getName(),wallet.getAge(),wallet.getAddress());\n        \n    }\n\n    function toString(address x)private returns (string) {\n    bytes memory b = new bytes(20);\n    for (uint i = 0; i < 20; i++)\n        b[i] = byte(uint8(uint(x) / (2**(8*(19 - i)))));\n    return string(b);\n    }\n    \n}\ncontract Wallet{\n    event showStringWallet(bytes32 name, bytes32 age,bytes32 pAddress);\n    \n    bytes32 name;\n    bytes32 age;\n    bytes32 pAddress;\n    \n    function Wallet(bytes32 n, bytes32 a, bytes32 p){\n        showStringWallet(n, a, p);\n        name=n;\n        age=a;\n        pAddress=p;\n        \n\n    }\n    \n    function getName() returns(bytes32){\n        return name;\n    }\n    function getAge() returns(bytes32){\n        return age;\n    }\n    function getAddress() returns(bytes32){\n        return pAddress;\n    }\n    \n}",
  "sourcePath": "C:\\Users\\Waleed\\Desktop\\TruffleAngularBox-master\\TruffleAngularBox-master\\contracts\\SimpleContract.sol",
  "compiler": {
    "name": "solc",
    "version": "0.4.24+commit.e67f0147.Emscripten.clang"
  },
  "schemaVersion": "2.0.0",
  "updatedAt": "2018-08-21T09:37:51.059Z"
}